{
  "contractName": "AtomicSwap_LandRegistry",
  "abi": [
    {
      "inputs": [
        {
          "name": "landRegistryContractAddress",
          "type": "address"
        }
      ],
      "payable": false,
      "stateMutability": "nonpayable",
      "type": "constructor"
    },
    {
      "anonymous": false,
      "inputs": [
        {
          "indexed": false,
          "name": "to",
          "type": "address"
        },
        {
          "indexed": false,
          "name": "hash",
          "type": "bytes32"
        },
        {
          "indexed": false,
          "name": "expiryTime",
          "type": "uint256"
        },
        {
          "indexed": false,
          "name": "id",
          "type": "bytes32"
        }
      ],
      "name": "landLocked",
      "type": "event"
    },
    {
      "anonymous": false,
      "inputs": [
        {
          "indexed": false,
          "name": "hash",
          "type": "bytes32"
        }
      ],
      "name": "landUnlocked",
      "type": "event"
    },
    {
      "anonymous": false,
      "inputs": [
        {
          "indexed": false,
          "name": "secret",
          "type": "string"
        },
        {
          "indexed": false,
          "name": "from",
          "type": "address"
        },
        {
          "indexed": false,
          "name": "hash",
          "type": "bytes32"
        }
      ],
      "name": "landClaimed",
      "type": "event"
    },
    {
      "constant": false,
      "inputs": [
        {
          "name": "to",
          "type": "address"
        },
        {
          "name": "hash",
          "type": "bytes32"
        },
        {
          "name": "lockExpiryMinutes",
          "type": "uint256"
        },
        {
          "name": "id",
          "type": "bytes32"
        }
      ],
      "name": "lock",
      "outputs": [],
      "payable": false,
      "stateMutability": "nonpayable",
      "type": "function"
    },
    {
      "constant": false,
      "inputs": [
        {
          "name": "hash",
          "type": "bytes32"
        }
      ],
      "name": "unlock",
      "outputs": [],
      "payable": false,
      "stateMutability": "nonpayable",
      "type": "function"
    },
    {
      "constant": false,
      "inputs": [
        {
          "name": "secret",
          "type": "string"
        }
      ],
      "name": "claim",
      "outputs": [],
      "payable": false,
      "stateMutability": "nonpayable",
      "type": "function"
    },
    {
      "constant": false,
      "inputs": [
        {
          "name": "secret",
          "type": "string"
        }
      ],
      "name": "calculateHash",
      "outputs": [
        {
          "name": "result",
          "type": "bytes32"
        }
      ],
      "payable": false,
      "stateMutability": "nonpayable",
      "type": "function"
    }
  ],
  "bytecode": "0x6060604052341561000f57600080fd5b604051602080610a508339810160405280805190602001909190505080600160006101000a81548173ffffffffffffffffffffffffffffffffffffffff021916908373ffffffffffffffffffffffffffffffffffffffff160217905550506109d48061007c6000396000f300606060405260043610610062576000357c0100000000000000000000000000000000000000000000000000000000900463ffffffff168063850a4d0114610067578063a8cbcecd146100c3578063ec9b5b3a1461013c578063f3fe12c914610163575b600080fd5b341561007257600080fd5b6100c1600480803573ffffffffffffffffffffffffffffffffffffffff1690602001909190803560001916906020019091908035906020019091908035600019169060200190919050506101c0565b005b34156100ce57600080fd5b61011e600480803590602001908201803590602001908080601f01602080910402602001604051908101604052809392919081815260200183838082843782019150505050505091905050610486565b60405180826000191660001916815260200191505060405180910390f35b341561014757600080fd5b61016160048080356000191690602001909190505061051b565b005b341561016e57600080fd5b6101be600480803590602001908201803590602001908080601f016020809104026020016040519081016040528093929190818152602001838380828437820191505050505050919050506106bd565b005b600160009054906101000a900473ffffffffffffffffffffffffffffffffffffffff1673ffffffffffffffffffffffffffffffffffffffff1663ee2ca0b23330846040518463ffffffff167c0100000000000000000000000000000000000000000000000000000000028152600401808473ffffffffffffffffffffffffffffffffffffffff1673ffffffffffffffffffffffffffffffffffffffff1681526020018373ffffffffffffffffffffffffffffffffffffffff1673ffffffffffffffffffffffffffffffffffffffff16815260200182600019166000191681526020019350505050600060405180830381600087803b15156102c057600080fd5b6102c65a03f115156102d157600080fd5b5050506080604051908101604052803373ffffffffffffffffffffffffffffffffffffffff1681526020018573ffffffffffffffffffffffffffffffffffffffff168152602001603c8402420181526020018260001916815250600080856000191660001916815260200190815260200160002060008201518160000160006101000a81548173ffffffffffffffffffffffffffffffffffffffff021916908373ffffffffffffffffffffffffffffffffffffffff16021790555060208201518160010160006101000a81548173ffffffffffffffffffffffffffffffffffffffff021916908373ffffffffffffffffffffffffffffffffffffffff16021790555060408201518160020155606082015181600301906000191690559050507f2c593b9a4c0e82d493f18e9a9c1352f15fab0866406c347e1bc2dc948837564c8484603c8502420184604051808573ffffffffffffffffffffffffffffffffffffffff1673ffffffffffffffffffffffffffffffffffffffff1681526020018460001916600019168152602001838152602001826000191660001916815260200194505050505060405180910390a150505050565b60006002826000604051602001526040518082805190602001908083835b6020831015156104c957805182526020820191506020810190506020830392506104a4565b6001836020036101000a03801982511681845116808217855250505050505090500191505060206040518083038160008661646e5a03f1151561050b57600080fd5b5050604051805190509050919050565b4260008083600019166000191681526020019081526020016000206002015410156106ba57600160009054906101000a900473ffffffffffffffffffffffffffffffffffffffff1673ffffffffffffffffffffffffffffffffffffffff1663165b3f4c600080846000191660001916815260200190815260200160002060000160009054906101000a900473ffffffffffffffffffffffffffffffffffffffff166000808560001916600019168152602001908152602001600020600301546040518363ffffffff167c0100000000000000000000000000000000000000000000000000000000028152600401808373ffffffffffffffffffffffffffffffffffffffff1673ffffffffffffffffffffffffffffffffffffffff168152602001826000191660001916815260200192505050600060405180830381600087803b151561066657600080fd5b6102c65a03f1151561067757600080fd5b5050507f43f476540ed69d942a24441e7e71ea817537a8b0efe2725ab00dcfcaa49142978160405180826000191660001916815260200191505060405180910390a15b50565b60006002826000604051602001526040518082805190602001908083835b60208310151561070057805182526020820191506020810190506020830392506106db565b6001836020036101000a03801982511681845116808217855250505050505090500191505060206040518083038160008661646e5a03f1151561074257600080fd5b5050604051805190509050600160009054906101000a900473ffffffffffffffffffffffffffffffffffffffff1673ffffffffffffffffffffffffffffffffffffffff1663165b3f4c600080846000191660001916815260200190815260200160002060010160009054906101000a900473ffffffffffffffffffffffffffffffffffffffff166000808560001916600019168152602001908152602001600020600301546040518363ffffffff167c0100000000000000000000000000000000000000000000000000000000028152600401808373ffffffffffffffffffffffffffffffffffffffff1673ffffffffffffffffffffffffffffffffffffffff168152602001826000191660001916815260200192505050600060405180830381600087803b151561087357600080fd5b6102c65a03f1151561088457600080fd5b5050507f753366a0c765399dada59047da4f7b26533e0e0ee12d61f73e8bf177c2c7ab3382600080846000191660001916815260200190815260200160002060000160009054906101000a900473ffffffffffffffffffffffffffffffffffffffff168360405180806020018473ffffffffffffffffffffffffffffffffffffffff1673ffffffffffffffffffffffffffffffffffffffff1681526020018360001916600019168152602001828103825285818151815260200191508051906020019080838360005b8381101561096857808201518184015260208101905061094d565b50505050905090810190601f1680156109955780820380516001836020036101000a031916815260200191505b5094505050505060405180910390a150505600a165627a7a72305820d39f19073f16cfa7361a18432cfc1be521518904dd31e9fed38e5e75443c92000029",
  "source": "pragma solidity ^0.4.19;\n\nimport \"./LandRegistry.sol\";\n\ncontract AtomicSwap_LandRegistry {\n\n    struct AtomicTxn {\n        address from;\n        address to;\n        uint lockPeriod;\n        bytes32 id;\n    }\n\n    mapping (bytes32 => AtomicTxn) txns;\n    LandRegistry LandRegistryContract;\n\n    event landLocked(address to, bytes32 hash, uint expiryTime, bytes32 id);\n    event landUnlocked(bytes32 hash);\n    event landClaimed(string secret, address from, bytes32 hash);\n\n    function AtomicSwap_LandRegistry(address landRegistryContractAddress) {\n        LandRegistryContract = LandRegistry(landRegistryContractAddress);\n    }\n\n    function lock(address to, bytes32 hash, uint lockExpiryMinutes, bytes32 id) {\n        LandRegistryContract.transferLandFrom(msg.sender, address(this), id);\n        txns[hash] = AtomicTxn(msg.sender, to, block.timestamp + (lockExpiryMinutes * 60), id);\n        landLocked(to, hash, block.timestamp + (lockExpiryMinutes * 60), id);\n    }\n\n    function unlock(bytes32 hash) {\n        if(txns[hash].lockPeriod < block.timestamp) {\n            LandRegistryContract.transferLand(txns[hash].from, txns[hash].id);\n            landUnlocked(hash);\n        }\n    }\n\n    function claim(string secret) {\n        bytes32 hash = sha256(secret);\n        LandRegistryContract.transferLand(txns[hash].to, txns[hash].id);\n        landClaimed(secret, txns[hash].from, hash);\n    }\n\n    function calculateHash(string secret) returns (bytes32 result) {\n        return sha256(secret);\n    }\n}\n",
  "sourcePath": "/Users/narayanprusty/Desktop/auc/contracts/AtomicSwap_LandRegistry.sol",
  "compiler": {
    "name": "solc",
    "version": "0.4.19+commit.c4cbbb05.Emscripten.clang"
  },
  "schemaVersion": "1.0.1",
  "updatedAt": "2018-04-16T20:32:02.425Z"
}