{
  "contractName": "AtomicSwap_USD",
  "abi": [
    {
      "inputs": [
        {
          "name": "usdContractAddress",
          "type": "address"
        }
      ],
      "payable": false,
      "stateMutability": "nonpayable",
      "type": "constructor"
    },
    {
      "anonymous": false,
      "inputs": [
        {
          "indexed": false,
          "name": "to",
          "type": "address"
        },
        {
          "indexed": false,
          "name": "hash",
          "type": "bytes32"
        },
        {
          "indexed": false,
          "name": "expiryTime",
          "type": "uint256"
        },
        {
          "indexed": false,
          "name": "amount",
          "type": "uint256"
        }
      ],
      "name": "usdLocked",
      "type": "event"
    },
    {
      "anonymous": false,
      "inputs": [
        {
          "indexed": false,
          "name": "hash",
          "type": "bytes32"
        }
      ],
      "name": "usdUnlocked",
      "type": "event"
    },
    {
      "anonymous": false,
      "inputs": [
        {
          "indexed": false,
          "name": "secret",
          "type": "string"
        },
        {
          "indexed": false,
          "name": "from",
          "type": "address"
        },
        {
          "indexed": false,
          "name": "hash",
          "type": "bytes32"
        }
      ],
      "name": "usdClaimed",
      "type": "event"
    },
    {
      "constant": false,
      "inputs": [
        {
          "name": "to",
          "type": "address"
        },
        {
          "name": "hash",
          "type": "bytes32"
        },
        {
          "name": "lockExpiryMinutes",
          "type": "uint256"
        },
        {
          "name": "amount",
          "type": "uint256"
        }
      ],
      "name": "lock",
      "outputs": [],
      "payable": false,
      "stateMutability": "nonpayable",
      "type": "function"
    },
    {
      "constant": false,
      "inputs": [
        {
          "name": "hash",
          "type": "bytes32"
        }
      ],
      "name": "unlock",
      "outputs": [],
      "payable": false,
      "stateMutability": "nonpayable",
      "type": "function"
    },
    {
      "constant": false,
      "inputs": [
        {
          "name": "secret",
          "type": "string"
        }
      ],
      "name": "claim",
      "outputs": [],
      "payable": false,
      "stateMutability": "nonpayable",
      "type": "function"
    },
    {
      "constant": false,
      "inputs": [
        {
          "name": "secret",
          "type": "string"
        }
      ],
      "name": "calculateHash",
      "outputs": [
        {
          "name": "result",
          "type": "bytes32"
        }
      ],
      "payable": false,
      "stateMutability": "nonpayable",
      "type": "function"
    }
  ],
  "bytecode": "0x6060604052341561000f57600080fd5b604051602080610a228339810160405280805190602001909190505080600160006101000a81548173ffffffffffffffffffffffffffffffffffffffff021916908373ffffffffffffffffffffffffffffffffffffffff160217905550506109a68061007c6000396000f300606060405260043610610062576000357c0100000000000000000000000000000000000000000000000000000000900463ffffffff168063087fad4114610067578063a8cbcecd146100bf578063ec9b5b3a14610138578063f3fe12c91461015f575b600080fd5b341561007257600080fd5b6100bd600480803573ffffffffffffffffffffffffffffffffffffffff16906020019091908035600019169060200190919080359060200190919080359060200190919050506101bc565b005b34156100ca57600080fd5b61011a600480803590602001908201803590602001908080601f01602080910402602001604051908101604052809392919081815260200183838082843782019150505050505091905050610468565b60405180826000191660001916815260200191505060405180910390f35b341561014357600080fd5b61015d6004808035600019169060200190919050506104fd565b005b341561016a57600080fd5b6101ba600480803590602001908201803590602001908080601f01602080910402602001604051908101604052809392919081815260200183838082843782019150505050505091905050610697565b005b600160009054906101000a900473ffffffffffffffffffffffffffffffffffffffff1673ffffffffffffffffffffffffffffffffffffffff1663af7003853330846040518463ffffffff167c0100000000000000000000000000000000000000000000000000000000028152600401808473ffffffffffffffffffffffffffffffffffffffff1673ffffffffffffffffffffffffffffffffffffffff1681526020018373ffffffffffffffffffffffffffffffffffffffff1673ffffffffffffffffffffffffffffffffffffffff1681526020018281526020019350505050600060405180830381600087803b15156102b457600080fd5b6102c65a03f115156102c557600080fd5b5050506080604051908101604052803373ffffffffffffffffffffffffffffffffffffffff1681526020018573ffffffffffffffffffffffffffffffffffffffff168152602001603c84024201815260200182815250600080856000191660001916815260200190815260200160002060008201518160000160006101000a81548173ffffffffffffffffffffffffffffffffffffffff021916908373ffffffffffffffffffffffffffffffffffffffff16021790555060208201518160010160006101000a81548173ffffffffffffffffffffffffffffffffffffffff021916908373ffffffffffffffffffffffffffffffffffffffff16021790555060408201518160020155606082015181600301559050507fe83e11fad6f6058789b8d1079f2d317e8873fcd55b0768535720f2c0521b765a8484603c8502420184604051808573ffffffffffffffffffffffffffffffffffffffff1673ffffffffffffffffffffffffffffffffffffffff168152602001846000191660001916815260200183815260200182815260200194505050505060405180910390a150505050565b60006002826000604051602001526040518082805190602001908083835b6020831015156104ab5780518252602082019150602081019050602083039250610486565b6001836020036101000a03801982511681845116808217855250505050505090500191505060206040518083038160008661646e5a03f115156104ed57600080fd5b5050604051805190509050919050565b42600080836000191660001916815260200190815260200160002060020154101561069457600160009054906101000a900473ffffffffffffffffffffffffffffffffffffffff1673ffffffffffffffffffffffffffffffffffffffff1663dd0be52d600080846000191660001916815260200190815260200160002060000160009054906101000a900473ffffffffffffffffffffffffffffffffffffffff166000808560001916600019168152602001908152602001600020600301546040518363ffffffff167c0100000000000000000000000000000000000000000000000000000000028152600401808373ffffffffffffffffffffffffffffffffffffffff1673ffffffffffffffffffffffffffffffffffffffff16815260200182815260200192505050600060405180830381600087803b151561064057600080fd5b6102c65a03f1151561065157600080fd5b5050507f0a93ab633fd3001b5cb861337764d0d595c3f5b6d7efd64ef1c080c6f6f06fd88160405180826000191660001916815260200191505060405180910390a15b50565b60006002826000604051602001526040518082805190602001908083835b6020831015156106da57805182526020820191506020810190506020830392506106b5565b6001836020036101000a03801982511681845116808217855250505050505090500191505060206040518083038160008661646e5a03f1151561071c57600080fd5b5050604051805190509050600160009054906101000a900473ffffffffffffffffffffffffffffffffffffffff1673ffffffffffffffffffffffffffffffffffffffff1663dd0be52d600080846000191660001916815260200190815260200160002060010160009054906101000a900473ffffffffffffffffffffffffffffffffffffffff166000808560001916600019168152602001908152602001600020600301546040518363ffffffff167c0100000000000000000000000000000000000000000000000000000000028152600401808373ffffffffffffffffffffffffffffffffffffffff1673ffffffffffffffffffffffffffffffffffffffff16815260200182815260200192505050600060405180830381600087803b151561084557600080fd5b6102c65a03f1151561085657600080fd5b5050507f252df96500336c4f9a47ae088e0967890925b67e715b300bc0c802fd7abb813982600080846000191660001916815260200190815260200160002060000160009054906101000a900473ffffffffffffffffffffffffffffffffffffffff168360405180806020018473ffffffffffffffffffffffffffffffffffffffff1673ffffffffffffffffffffffffffffffffffffffff1681526020018360001916600019168152602001828103825285818151815260200191508051906020019080838360005b8381101561093a57808201518184015260208101905061091f565b50505050905090810190601f1680156109675780820380516001836020036101000a031916815260200191505b5094505050505060405180910390a150505600a165627a7a7230582058fd3ed040952c61cea7949c73be37fade568f370c65570d7c72b59427e4e5990029",
  "source": "pragma solidity ^0.4.19;\n\nimport \"./USD.sol\";\n\ncontract AtomicSwap_USD {\n\n    struct AtomicTxn {\n        address from;\n        address to;\n        uint lockPeriod;\n        uint amount;\n    }\n\n    mapping (bytes32 => AtomicTxn) txns;\n    USD USDContract;\n\n    event usdLocked(address to, bytes32 hash, uint expiryTime, uint amount);\n    event usdUnlocked(bytes32 hash);\n    event usdClaimed(string secret, address from, bytes32 hash);\n\n    function AtomicSwap_USD(address usdContractAddress) {\n        USDContract = USD(usdContractAddress);\n    }\n\n    function lock(address to, bytes32 hash, uint lockExpiryMinutes, uint amount) {\n        USDContract.transferUSDFrom(msg.sender, address(this), amount);\n        txns[hash] = AtomicTxn(msg.sender, to, block.timestamp + (lockExpiryMinutes * 60), amount);\n        usdLocked(to, hash, block.timestamp + (lockExpiryMinutes * 60), amount);\n    }\n\n    function unlock(bytes32 hash) {\n        if(txns[hash].lockPeriod < block.timestamp) {\n            USDContract.transferUSD(txns[hash].from, txns[hash].amount);\n            usdUnlocked(hash);\n        }\n    }\n\n    function claim(string secret) {\n        bytes32 hash = sha256(secret);\n        USDContract.transferUSD(txns[hash].to, txns[hash].amount);\n        usdClaimed(secret, txns[hash].from, hash);\n    }\n\n    function calculateHash(string secret) returns (bytes32 result) {\n        return sha256(secret);\n    }\n}\n",
  "sourcePath": "/Users/narayanprusty/Desktop/auc/contracts/AtomicSwap_USD.sol",
  "compiler": {
    "name": "solc",
    "version": "0.4.19+commit.c4cbbb05.Emscripten.clang"
  },
  "schemaVersion": "1.0.1",
  "updatedAt": "2018-04-16T20:32:02.423Z"
}