{
  "contractName": "LandRegistry",
  "abi": [
    {
      "inputs": [],
      "payable": false,
      "stateMutability": "nonpayable",
      "type": "constructor"
    },
    {
      "constant": false,
      "inputs": [
        {
          "name": "to",
          "type": "address"
        },
        {
          "name": "id",
          "type": "bytes32"
        }
      ],
      "name": "issueLand",
      "outputs": [],
      "payable": false,
      "stateMutability": "nonpayable",
      "type": "function"
    },
    {
      "constant": false,
      "inputs": [
        {
          "name": "to",
          "type": "address"
        },
        {
          "name": "id",
          "type": "bytes32"
        }
      ],
      "name": "transferLand",
      "outputs": [],
      "payable": false,
      "stateMutability": "nonpayable",
      "type": "function"
    },
    {
      "constant": true,
      "inputs": [
        {
          "name": "id",
          "type": "bytes32"
        }
      ],
      "name": "getOwner",
      "outputs": [
        {
          "name": "owner",
          "type": "address"
        }
      ],
      "payable": false,
      "stateMutability": "view",
      "type": "function"
    },
    {
      "constant": false,
      "inputs": [
        {
          "name": "transferer",
          "type": "address"
        },
        {
          "name": "id",
          "type": "bytes32"
        }
      ],
      "name": "approve",
      "outputs": [],
      "payable": false,
      "stateMutability": "nonpayable",
      "type": "function"
    },
    {
      "constant": false,
      "inputs": [
        {
          "name": "from",
          "type": "address"
        },
        {
          "name": "to",
          "type": "address"
        },
        {
          "name": "id",
          "type": "bytes32"
        }
      ],
      "name": "transferLandFrom",
      "outputs": [],
      "payable": false,
      "stateMutability": "nonpayable",
      "type": "function"
    }
  ],
  "bytecode": "0x6060604052341561000f57600080fd5b33600260006101000a81548173ffffffffffffffffffffffffffffffffffffffff021916908373ffffffffffffffffffffffffffffffffffffffff1602179055506105f78061005f6000396000f30060606040526004361061006d576000357c0100000000000000000000000000000000000000000000000000000000900463ffffffff168063165b3f4c146100725780635cd2f4d3146100b85780638794e173146100fe578063deb931a214610144578063ee2ca0b2146101ab575b600080fd5b341561007d57600080fd5b6100b6600480803573ffffffffffffffffffffffffffffffffffffffff1690602001909190803560001916906020019091905050610210565b005b34156100c357600080fd5b6100fc600480803573ffffffffffffffffffffffffffffffffffffffff16906020019091908035600019169060200190919050506102e2565b005b341561010957600080fd5b610142600480803573ffffffffffffffffffffffffffffffffffffffff169060200190919080356000191690602001909190505061036b565b005b341561014f57600080fd5b610169600480803560001916906020019091905050610422565b604051808273ffffffffffffffffffffffffffffffffffffffff1673ffffffffffffffffffffffffffffffffffffffff16815260200191505060405180910390f35b34156101b657600080fd5b61020e600480803573ffffffffffffffffffffffffffffffffffffffff1690602001909190803573ffffffffffffffffffffffffffffffffffffffff1690602001909190803560001916906020019091905050610469565b005b3373ffffffffffffffffffffffffffffffffffffffff16600080836000191660001916815260200190815260200160002060000160009054906101000a900473ffffffffffffffffffffffffffffffffffffffff1673ffffffffffffffffffffffffffffffffffffffff1614156102de5781600080836000191660001916815260200190815260200160002060000160006101000a81548173ffffffffffffffffffffffffffffffffffffffff021916908373ffffffffffffffffffffffffffffffffffffffff1602179055505b5050565b80600160008473ffffffffffffffffffffffffffffffffffffffff1673ffffffffffffffffffffffffffffffffffffffff16815260200190815260200160002060003373ffffffffffffffffffffffffffffffffffffffff1673ffffffffffffffffffffffffffffffffffffffff16815260200190815260200160002081600019169055505050565b600260009054906101000a900473ffffffffffffffffffffffffffffffffffffffff1673ffffffffffffffffffffffffffffffffffffffff163373ffffffffffffffffffffffffffffffffffffffff16141561041e5781600080836000191660001916815260200190815260200160002060000160006101000a81548173ffffffffffffffffffffffffffffffffffffffff021916908373ffffffffffffffffffffffffffffffffffffffff1602179055505b5050565b6000806000836000191660001916815260200190815260200160002060000160009054906101000a900473ffffffffffffffffffffffffffffffffffffffff169050919050565b8060001916600160003373ffffffffffffffffffffffffffffffffffffffff1673ffffffffffffffffffffffffffffffffffffffff16815260200190815260200160002060008573ffffffffffffffffffffffffffffffffffffffff1673ffffffffffffffffffffffffffffffffffffffff168152602001908152602001600020546000191614801561056457508273ffffffffffffffffffffffffffffffffffffffff16600080836000191660001916815260200190815260200160002060000160009054906101000a900473ffffffffffffffffffffffffffffffffffffffff1673ffffffffffffffffffffffffffffffffffffffff16145b156105c65781600080836000191660001916815260200190815260200160002060000160006101000a81548173ffffffffffffffffffffffffffffffffffffffff021916908373ffffffffffffffffffffffffffffffffffffffff1602179055505b5050505600a165627a7a7230582085731eb4c6233eb5700c762bd1331d49c92c7be17c104a46bcdd97e2d259ae880029",
  "source": "pragma solidity ^0.4.19;\n\ncontract LandRegistry {\n\n    struct Land {\n        address owner;\n    }\n    \n    mapping (bytes32 => Land) land_records;\n    mapping (address => mapping (address => bytes32)) allowed;\n    address owner;\n    \n    function LandRegistry() {\n        owner = msg.sender;\n    }\n    \n    function issueLand(address to, bytes32 id) {\n        if(msg.sender == owner) {\n            land_records[id].owner = to;\n        } \n    }\n    \n    function transferLand(address to, bytes32 id) {\n        if(land_records[id].owner == msg.sender) {\n            land_records[id].owner = to;\n        }\n    }\n    \n    function getOwner(bytes32 id) view returns (address owner) {\n        return land_records[id].owner;\n    }\n    \n    function approve(address transferer, bytes32 id) {\n        allowed[transferer][msg.sender] = id;\n    }\n    \n    function transferLandFrom(address from, address to, bytes32 id) {\n        if(allowed[msg.sender][from] == id && land_records[id].owner == from) {\n            land_records[id].owner = to;\n        }\n    }\n}",
  "sourcePath": "/Users/narayanprusty/Desktop/auc/contracts/LandRegistry.sol",
  "compiler": {
    "name": "solc",
    "version": "0.4.19+commit.c4cbbb05.Emscripten.clang"
  },
  "schemaVersion": "1.0.1",
  "updatedAt": "2018-04-16T20:32:02.426Z"
}